S011000061726D5F73796E74682E737265633E
S113000078080020E5020000E1020000E10200009F
S113001000000000000000000000000000000000DC
S1130020000000000000000000000000E1020000E9
S11300300000000000000000E1020000E1020000F6
S1130040E1020000E1020000E1020000E102000020
S1130050E1020000E1020000E1020000E102000010
S1130060E1020000E1020000E1020000E102000000
S1130070E1020000E1020000E1020000E1020000F0
S1130080E1020000E1020000E102000010B5064CAC
S11300902378002B07D1054B002B02D0044800E045
S11300A000BF0123237010BD3404002000000000B1
S11300B0BC050000084B10B5002B03D007490848C5
S11300C000E000BF07480368002B00D110BD064BB9
S11300D0002BFBD09847F9E700000000380400200B
S11300E0BC050000BC05000000000000F0B5C646D9
S11300F000B5694A116A80235B000B431362674AA7
S1130100674B5A801A005378DB09FCD1654A13788F
S113011002218B431370537EDB09FCD1614A1378AF
S113012001210B4313701378DB07FCD4537EDB09E6
S1130130F9D15D4B1A689106490F5C4B1C68E40EBB
S11301405201FF2313401C43564A537EDB09FCD162
S11301500B022343534A1385537EDB09FCD1514BD5
S113016002225A7033259D700E32904610209A80D8
S11301704F4A1A6101210122D9704E4B5F68042451
S1130180A44627435F604227DC5D1443E4B2DC5598
S1130190113FD9555C68664634435C604324A446E9
S11301A01C5D1443E4B266469C55D8555C68293FEF
S11301B03C435C603C37DC5D1443E4B2DC55123FE5
S11301C0D9555C68464626435E6045269C5D1443CB
S11301D0E4B29C55D8555C68253E34435C602636B1
S11301E09C5D1443E4B29C5559555C68063E344307
S11301F05C6007369C5D1443E4B29C5558555C68BA
S11302004D352C435C60363D5C5D1443E4B25C5573
S1130210153D59555E688024E40034435C604B26E8
S11302209C5D1443E4B29C5558555D6880242401B8
S11302302C435C604E255C5D1443E4B25C5537246A
S113024019555D688021C901294359604F25595DBD
S11302500A43D2B25A5518555968802212020A43E9
S11302605A60104A537EDB09FCD10E4A13780221EE
S11302700B431370537EDB09FCD10A4A137B022122
S11302800B431373137EDB07FCD50122054B1A764F
S113029004BC9046F0BDC04600040040134000007A
S11302A0000C004000200042246080002060800098
S11302B00018000F00440041084A537EDB09FCD1BA
S11302C0064A137B02210B431373137EDB07FCD511
S11302D0024B01221A76588B80B2704700200042EC
S11302E0FEE70000F8B52A4A2A4B9A4211D01A00B8
S11302F0294B9A420DD2294A03339B1A9B08013396
S11303009B000022234822498C58845004329A428C
S1130310FAD1234A234B9A420AD2D34321495B1888
S113032003218B4304339B18002102C29342FCD166
S11303301D4AFF211D4B8B439360FD3990235B00C5
S11303401B4AD1501B4AD3780325AB4302242343D1
S1130350D370D3780C27BB4308263343D370164B92
S1130360987B30229043202210439873997BB943A1
S1130370314399739A7BAA4322439A730F4A536871
S113038080210B4353600E4B98470E4B9847FEE772
S1130390BC050000000000203404002004000020FC
S11303A0340400207404002000ED00E0000000008C
S11303B000700041005000410048004100400041ED
S11303C0F5030000D9030000014A024B1A6070478C
S11303D040420F000000002010B5034B9847034B28
S11303E09847034CA047FDE7C9030000ED00000057
S11303F0B902000070B50D4E0D4D0024AD1BAD10BB
S113040005D0A300F35801349847A542F9D100F070
S1130410C3F8084E084D0024AD1BAD1005D0A30051
S1130420F35801349847A542F9D170BDA4050000E2
S1130430A4050000A4050000AC050000034B10B5A2
S1130440002B02D0024800F005F810BD00000000A7
S11304506504000010B5010000230022002000F014
S11304601FF810BD70B5094B094CE41AA41009D04B
S1130470084AA518AD00ED182B68013C9847043DC7
S1130480002CF9D100F092F870BDC046B805000008
S1130490BC050000FFFFFF3F7047C0467047C046E1
S11304A0F0B54E464546DE465746E0B5364D83B078
S11304B00600286898460F009146FFF7EDFF334B7E
S11304C01C68A4235B00E058002852D043681F2B0B
S11304D013DC5A1C0192002E28D1019A02339B008E
S11304E042601F502868FFF7D9FF002003B03CBCCE
S11304F090469946A246AB46F0BD254B002B3DD015
S1130500C820400000E000BF002837D0A422002308
S11305105200A15843600160A0504032835004321D
S11305208350013301930023002ED6D09A009246C3
S113053082444A46882154466250C422520091465D
S113054081444A468739994012688B460A43944647
S11305504A4661461160842241465200A150022E4F
S1130560BBD102005C468D32FF3211680C4314602B
S1130570B3E720004D30FF30E050A7E72868FFF7CD
S11305808DFF01204042B1E73004002094050000B3
S11305900000000008000020F8B5C046F8BC08BC04
S11305A09E4670473D040000B5000000F8B5C04603
S10F05B0F8BC08BC9E4670478D0000009B
S11305BC40420F000000000000000000F402002084
S11305CC5C030020C40300200000000000000000B5
S11305DC000000000000000000000000000000000B
S11305EC00000000000000000000000000000000FB
S11305FC00000000000000000000000000000000EB
S113060C00000000000000000000000000000000DA
S113061C00000000000000000000000000000000CA
S113062C00000000000000000000000000000000BA
S113063C00000000000000000000000000000000AA
S113064C000000000000000000000000000000009A
S113065C000000000000000000000000000000008A
S113066C01000000000000000E33CDAB34126DE627
S113067CECDE05000B000000000000000000000090
S113068C000000000000000000000000000000005A
S113069C000000000000000000000000000000004A
S11306AC000000000000000000000000000000003A
S11306BC000000000000000000000000000000002A
S10709EC500400208F
S9030000FC
